:020000041000EA
:1000000000B5324B212058609868022188439860DF
:10001000D860186158612E4B002199600221596106
:100020000121F02299502B49196001219960352056
:1000300000F044F80222904214D00621196600F024
:1000400034F8196E01211966002018661A6600F04E
:100050002CF8196E196E196E052000F02FF8012189
:100060000842F9D1002199601B49196000215960AB
:100070001A491B48016001219960EB211966A021F2
:10008000196600F012F800219960164914480160C1
:100090000121996001BC002800D000471248134993
:1000A000086003C880F30888084703B5996A0420EC
:1000B0000142FBD001200142F8D103BD02B5186610
:1000C0001866FFF7F2FF186E186E02BD00000240BE
:1000D000000000180000070000035F00212200005C
:1000E000F4000018222000A00001001008ED00E03C
:1000F00000000000000000000000000074B24E7A12
:1001000000200420F7010010C3010010C5010010F9
:10011000C1010010C1010010C1010010C101001097
:10012000C1010010C1010010C1010010C701001081
:10013000C1010010C1010010C9010010CB01001065
:10014000CD010010CD010010CD010010CD01001037
:10015000CD010010CD010010CD010010CD01001027
:10016000CD010010CD010010CD010010CD01001017
:10017000CD010010CD010010CD010010CD01001007
:10018000CD010010CD010010CD010010CD010010F7
:10019000CD010010CD010010CD010010CD010010E7
:1001A000CD010010CD010010CD010010CD010010D7
:1001B000CD010010CD010010CD010010CD010010C7
:1001C00000BE00BE00BE00BE00BE00BEEFF3058054
:1001D000103800BEF2EB8871C83A0510F03A0510ED
:1001E0003402001090A31AE700201F49086006C8D7
:1001F00081F3088810471D48006800282FD10DA4FE
:100200000ECC002902D000F012F8F9E71849194A7B
:10021000002000E001C19142FCD1174988471749ED
:1002200088471749884700BEFDE701C901C29A42C5
:10023000FBD37047F03A0510C0000020E017002003
:100240003052051000000420000004203052051038
:10025000001004200010042000000000704709482E
:1002600001F03CFA0047000008ED00E0000000D07B
:100270000018002020E0002095100110850A0010D1
:10028000511001105756000006005250ABB3605396
:100290007034051006005250861C0302803405108D
:1002A000060052505422A29DA03405100500525061
:1002B000DE65F46830520510F8B5C04610B5064C3E
:1002C0002378002B07D1054B002B02D0044800E017
:1002D00000BF0123237010BD601900200000000042
:1002E000A06E0110044B10B5002B03D00349044845
:1002F00000E000BF10BDC0460000000064190020EF
:10030000A06E01108162704770B5040015001100E5
:10031000034813F01BFBE36A5D1BE562002070BD20
:10032000A06E011010B5194B1B681868002822D068
:10033000002105F08FF8154C236818680022002171
:1003400005F0B6F823681868002105F095F82368D1
:100350001868002105F082F823681868002105F06C
:1003600099F82368186805F059FC011E04D1074B61
:100370001B6800221A6010BD054813F0E7FA034B12
:100380001B68186805F086FAF1E7C04694CD002096
:10039000BC6E011010B50400094B196800290BD080
:1003A000084813F0D3FA064B1A6834230121D154BC
:1003B0002000FFF7B7FF10BD034813F097FAF2E7EC
:1003C00094CD0020EC6E0110DC6E011070B50500BC
:1003D000141E09D1094B1A6835230121D15408484C
:1003E00013F084FA200070BD1100064813F0AEFA35
:1003F00021002800FFF7CEFFF5E7C04694CD00208E
:10040000106F0110FC6E011070B505000C000B00A0
:100410000D3300D170BD044813F098FA2100280074
:10042000FFF7B8FFF6E7C046306F0110F8B5DE46BB
:1004300057464E464546E0B58146002501E0013568
:10044000EDB24B465C5D002CF9D1AA4600239846DC
:1004500027E04B461B5D3022524293469B44534655
:10046000181B013812F05AFA02000B000020114943
:1004700012F02AFE06000F00584612F04FFA320022
:100480003B0012F0D6F906000F00404612F042FA87
:1004900032003B0012F0AEF912F07CFA80460134D3
:1004A000E4B2A542D5D84046F0BCBB46B246A94608
:1004B000A046F8BD00002440F0B583B00D00140044
:1004C0001E00002A1ED010F0C3F966682389F318B5
:1004D00000221A702A49300016F058FA002815D167
:1004E0002849300016F052FA002814D1264B1A6819
:1004F0001368002BFCD0BFF35F8F3000FFF796FF2F
:10050000002121E0FFF70EFF300036E0012100203E
:100510000CF01AFBEAE7002100200CF015FBE5E7E0
:10052000CB00013A9F180123BB4003405F1EBB4133
:10053000DBB29340DBB29E19F6B2144B5E54D2B2DA
:10054000002AEDD10131C9B2032902D808220026C0
:10055000F6E70D4B1B68BFF35F8F00221A602189FD
:10056000280004F01BFF200004F058FA01A9012321
:100570000B700122280007F07FFE03B0F0BDC046DB
:10058000747301100487011090DF002078CD0020E3
:10059000F0B5C64600B590B005000E0017001C006F
:1005A00000230093023322000FF0AEFE002201214F
:1005B000200001F0DFF9601C0022012101F0DAF9CE
:1005C0001022002108A813F063F880235B0208932F
:1005D000F8235B0209938023DB020A93C0231B03E9
:1005E0000A93102208A904A813F058F839000F3113
:1005F0003A001C32059B0393324B03980340C90118
:100600000B43120313430593102204A90CA813F003
:1006100045F80F9B03932C4B039A1340E2031343BB
:100620000F930D9B0393294B039A134024061C43FD
:100630000D940E9B0393264B039A13400E939B003D
:100640009B080E93169B002B12D180235B020C9308
:100650000CAB3A00310028000FF0A8FE2A680123F5
:10066000B3409A4313432B6010B080BCB846F0BD32
:10067000052001F061F912F03DFF041C0E20169BCD
:10068000584312F03DFF011C201C12F018FF804659
:1006900012F058FF84B2002C12D0200012F02AFF72
:1006A000011C404612F005FF8721C90512F01BFF0F
:1006B00012F048FFC0B20002240404430C94C7E7C0
:1006C0000020F8E77F00FEFFFF7FF0FFFFFFFFE065
:1006D000FFFF0AFE70B504000E00150001604260C5
:1006E0008360080001F0F2F9280001F0EFF901231E
:1006F0001900B140D02212065162AB405362200073
:1007000070BD01634263704770B504000E001500B0
:10071000C1600421300001F015F9720807231A4066
:10072000226101210E40666193009B189B001A4ACA
:1007300094466344FF2212015A60226993009B1879
:100740009B006344154A1A6121696269ADB28B004E
:100750005B189B0012498C466344002A18D0102174
:100760008D40002A16D00F4A19684D40154080214F
:1007700049010B431D60226993009B189B00064AA8
:10078000944663441868012282430B431A6070BD8B
:100790001100E5E7044AE7E7000005404C260000A9
:1007A0000C0005400000FFFFFFFF00000162836AAC
:1007B000591A41627047000070B504000D00160020
:1007C000524813F0C3F829002000FFF79BFD3100C9
:1007D0002000FFF7EBFF606A216B884236D9642363
:1007E000E3626421E06A11F0C5FD0304181AE062B7
:1007F000636A642B35DC643366DA454813F076F8B7
:100800000123190022689140D0221206916161688B
:100810008B40536120696169A28D83001B189B0086
:100820003C488446634400294AD010208240002975
:1008300048D03949186842400A40802149010B4399
:100840001A60E16A354813F081F870BDE569C31795
:10085000C018584011F08EFD64234343ED18E56243
:10086000BFE72F4813F042F8012319002268914096
:10087000D0221206516161688B40936120696169E1
:10088000A28D83001B189B002248844663440029E4
:1008900012D010208240002910D01F491868424011
:1008A0000A40802149010B431A60A36A626A310041
:1008B0001C4813F04BF8C4E70800EBE71A49EDE7D2
:1008C0000800B3E71849B5E70123190022689140F1
:1008D000D0221206916161688B4093612269930076
:1008E0009B189B000B4A944663446269002A0AD015
:1008F00009491A68114080225201134319600B48BC
:1009000012F0F4FF9DE70849F3E7C046506F01106D
:100910008C6F01100C0005400000FFFF986F011064
:10092000646F0110706F0110FFFF0000446F011031
:1009300070B504003821012012F072FE1A4B1860C5
:10094000011D20000BF02CFF002801D1002070BDFC
:10095000154C2568002005F0BDF82860216808685E
:1009600000281ED00023CB628B6204F073FD0E4C76
:10097000236818680D4904F07FFD236818680C4946
:1009800004F06CFD236818680A4904F083FD2168AF
:1009900001C9094B094A04F0CFFD43425841C0B296
:1009A000D5E70020D3E7C04694CD0020090300100E
:1009B000B904001009040010CD03001092100000CB
:1009C00010B50CF0DDF9002831D10CF09DF80121B3
:1009D00000200CF0B9F8FA2002F03EFA00210020C5
:1009E0000CF0B2F8FA2002F037FA1C4812F07EFF41
:1009F0001B4B1C4A1C491D480CF05AF900281AD1FF
:100A0000012100200CF0A0F8194812F06FFF1948DE
:100A1000FFF78EFF002815D10121174B18684942B6
:100A2000FFF7B8FC002100200CF08EF814E013480A
:100A300012F05CFF10E0124812F058FF0CE00120A9
:100A400002F00AFA0C4B18683423C35C002BF6D072
:100A500012F006FE0CF07CF910BDC046B86F011014
:100A60003075000004004000D06F0110E06F0110ED
:100A7000FC6F01100870011094CD0020A06F0110D0
:100A8000E86F011070B590B0FA2002F0E5F912F0AD
:100A900069FF012000F012FE394B186000F0E6FDFE
:100AA000384B1860384815F08DFB384D3849280010
:100AB0000FF094FB0400002600960C230200002196
:100AC0002800FFF765FD00960E2322000121280073
:100AD000FFF75EFD00961023220002212800FFF799
:100AE00057FD00961223220003212800FFF750FD36
:100AF00010230722062102A8FFF7ECFD254A00215A
:100B000002A8FFF701FEFA21234A890002A8FFF795
:100B1000F8FD002517E001251C4B01229A611B4BB3
:100B20005B685B05FBD4194B9C6A1C4E31001C486A
:100B300012F00CFF2200310002A8FFF73DFE210059
:100B4000184812F003FF0F4B1968174BCA18921080
:100B5000164B1868012393400342DCD1002DDBD0F3
:100B60000B68002BFCD0BFF35F8F064B1B68BFF3F5
:100B70005F8F00221A60012002F06EF90025CBE79A
:100B80008CDF002090DF0020C109001000003050F1
:100B9000547001102613000030750000AC0D0000E9
:100BA000187001102C70011000FFFF2F5C0000D0A6
:100BB00010B5064B8B4202D108F030FB10BD044B40
:100BC000044A1821044810F047FAC046380E0020A5
:100BD0009870011090710110B8700110F8B5040000
:100BE000204B994212D101230B7208F041FB050002
:100BF000431C11D11C4B186859681C4B9860D96074
:100C000023685B69194920009847F8BD184B194AB9
:100C10001D21194810F020FA02F0EAF906000F1E13
:100C200010DBFA22920000232800002112F024FC9D
:100C300036184F41002F0BDB002F0DDB0B4B9E6056
:100C4000DF60DDE70D4B0E4A3F210E4810F004FA3D
:100C5000012676420C4FEFE7084B094A3F2109482D
:100C600010F0FAF9280E0020E87E0110380E00205E
:100C7000F0700110A8710110B870011020710110FE
:100C8000787101103C710110FFFFFF7F10B5040067
:100C9000094B1B78002B08D0084901230B722368ED
:100CA000DB6920009847012010BD02F017FE024BBF
:100CB00001221A70F0E7C0460EE00020280E002046
:100CC00010B5040003689B690349984723681B6AB1
:100CD00002492000984710BD380E0020280E002041
:100CE000002070477047000010B502F081F900291C
:100CF00006DB0BD0FA229200002311F079FB10BD25
:100D0000054B064A3F21064810F0A6F9FA21890052
:100D100011F030FBF3E7C04620710110787101102B
:100D20003C710110083000E018000368002B03D06C
:100D30008B42F9D1002002E001600B600120704776
:100D4000083000E018000368002B05D08B42F9D171
:100D50000B680360012000E000207047043000E0D1
:100D600018000368002B03D08B42F9D1002002E069
:100D700001600B6001207047043000E01800036838
:100D8000002B05D08B42F9D10B680360012000E0F5
:100D900000207047F8B506008068002833D002F0C4
:100DA00027F9002906DB04000D0008239C46B44403
:100DB00000220CE0154B164A3F21164810F04CF962
:100DC000154B164A4221164810F046F99C466346D8
:100DD0001B68002B12D0200029009E68DF68801B52
:100DE000B9410029F2DB34003D000E490A68496828
:100DF000724079400A43E3D06246E7E7002A03D015
:100E0000106803681360F8BD1000FCE72071011042
:100E1000287201103C710110BC7101104072011068
:100E2000E0710110E87E0110F0B583B0104B5C68F2
:100E30001B6800930194836804E0DC689B6800935E
:100E400001940B00002B0CD01968009C019D9E683A
:100E5000DF68A41BBD41002DEFDCF2D1002CECD1EA
:100E6000EFE7009B019C0361446103B0F0BDC04605
:100E7000E87E011070B506000D0002E04B68280006
:100E800098472800FFF786FF011EF7D16C6800E045
:100E90002468002C09D0237A002BF9D00023237278
:100EA0002100280063689847F2E72800FFF7BCFF9D
:100EB0002B696C6933607460300070BDF0B5C64654
:100EC00000B5804602F094F806000F1E0FDB434683
:100ED0009B68002B11D0002B0FD034003D00996887
:100EE000DA68641A9541002D13DA1B68F3E70B4B9F
:100EF0000B4A3F210B4810F0AFF843465B6800E017
:100F00001B68002B03D0187A0028F9D002E00020DB
:100F100000E0012080BCB846F0BDC0462071011041
:100F2000287201103C710110034B1B68022018400D
:100F3000431E9841C0B2704700C0064010B5104A29
:100F4000104B12184B419900900F0843990F5040D5
:100F500059400D4A0D4B12F08FFA03004A01C00EA2
:100F60001043CA0E58405140094A0A4B12F084FA05
:100F700003004A00C00F1043CA0F5840514010BD33
:100F8000157C4A7FB979379EB9E5E41C6D4758BF97
:100F9000EB113113BB49D094F0B5C64600B584B00F
:100FA00002000B0013498C461BE0614601C900900A
:100FB0008C4600210191910E9F010F4396010098EC
:100FC00001998019794102900391110C1D040D4380
:100FD00014040298039900196941801A994102008A
:100FE0000B0005498C45E0D91000190004B080BC05
:100FF000B846F0BD001C0420FF1F0420F0B5CE460B
:10100000474680B583B080460368446800930194E6
:1010100003008068D96801E001F0EAFF009C019DAF
:1010200023002B4302D103000B43F5D0009C019D0C
:10103000A60FAB003343A2002E002500AD185E4181
:101040006B0E9946F3019C464B46624613431F00C4
:10105000730EEA0113431E005B0F9C46FB006446BF
:101060002343F20092197B41009C019D604069403E
:10107000260A2F063E432D0A009C24062C4344409A
:1010800035004D40070C0E043E4307047C4075407C
:101090004646346075604C01C50E2C434001C90EB4
:1010A0000843B460F0601000190003B0C0BCB9463A
:1010B000B046F0BDF0B5DE4657464E464546E0B573
:1010C00083B00190574B9B69DB0410D5564BDA6B0C
:1010D000E0231340402B0AD0EFF305839846019B91
:1010E000002B0AD000239946002400258AE04F4BAC
:1010F0004F4A81214F480FF0AFFF4F4B4C4A86219A
:101100004C480FF0A9FF4D4B1868596801F0FAFDE3
:10111000EFF3108672B64A4B1B68002BFBD0BFF36F
:101120005F8F464B19685A688A4516D0BFF35F8FA8
:10113000434B00221A6086F310885B46002B5ED179
:101140003E4B1A6892465F684346002BDBD03B4B10
:101150001868596801F058FFDAE7BA42E6D1200072
:101160002900001969412F4BDA6901231340034319
:101170001C000D0001F03CFF02000B1E23DB0A20C7
:10118000002112184B41002B23DB002B25DB2B49C0
:101190000A604B6001994B1E4B452DD1294A2023F3
:1011A0005B42CB181FD4116899400B00126801995B
:1011B0008A4022432B4314001D00224B1C605D60BB
:1011C00001239B46B2E7204B204A3F2120480FF0E5
:1011D00043FF012252421F4BD7E71B4B1B4A3F21C3
:1011E0001B480FF039FF202301981B1A1168D940C2
:1011F000536883400B43D9E701239B4696E70123BD
:101200009C46E144019B994502D200239B4697E707
:101210002000290003B0F0BCBB46B246A946A04658
:10122000F0BDC04600000640008000407072011012
:101230009073011038730110409901105819002063
:10124000300100D0F81700202071011078730110D0
:101250003C710110FFFFFF7F10B588B03B4C206848
:101260006168FFF799FE20606160FFF767FE049BED
:101270005840059B019359400490059102A800F045
:1012800011F902980399FFF759FE069B0193584004
:10129000079B01935940069007914020FFF70AFFF2
:1012A000FFF74CFE049B5840059B01935940049066
:1012B000059101F09DFEFFF741FE069B019358400A
:1012C000079B0193594006900791EFF3108472B683
:1012D0001F4B1B68002BFBD0BFF35F8F1D4B1B7890
:1012E000002B24D1032B09D85A1CD2001A498C4652
:1012F000624452681F2A03D00133F3E701235B42A3
:101300005A1C1DD0DBB2154A13700133DB00124AA0
:101310009446634405225A6004A8FFF76FFE10222A
:1013200004A90F4812F0BAF90A4B01221A70BFF350
:101330005F8F074B00221A6084F3108808B010BD3D
:10134000084B094AE92109480FF086FEE017002002
:10135000300100D018E000200000034009E0002028
:10136000E81700206C730110B0730110387301107E
:1013700070B586B03E4B1B78002B00D16EE010227A
:101380003C4902A812F08AF93B4B1C78E4B201F008
:101390002FFEFFF7D3FD029B5840039B019359405A
:1013A000029003910120FFF785FEFFF7C7FD049B24
:1013B00001935840059B01935940049005912F4B90
:1013C0001A78531CDB002E4958582E4B984248D0AF
:1013D0000021FFF7B3FD029B1840039B01931940C6
:1013E00002900391EFF3108672B6274B1B68002B17
:1013F000FBD0BFF35F8F204B1B78DBB2A34213D02F
:101400001C4B02991A685140039A01925868424055
:10141000029103929A68DB68049901914A40059908
:1014200001914B400492059302A8FFF7E7FD0500E8
:101430000C00102202A90F4812F030F90E4A13785E
:101440000133DBB21370BFF35F8F0F4B00221A60C2
:1014500086F310882800210006B070BDFFF7FCFE5F
:101460008DE70132D2000B000021D150B0E7C04619
:1014700018E00020E81700200AE0002009E0002022
:1014800000000340FFFFFF00300100D010B5FFF760
:101490006FFF10BD10B5024800F03CF810BDC0460B
:1014A00078DD002010B50822014912F0F7F810BDD0
:1014B00078DD002010B5002901D000230AE0114B8F
:1014C000114A1F3111480FF0C7FD00240DE03732DB
:1014D000C25401334A1E9A420FD90F2B0DD85A0815
:1014E0000B4CA25CDC07F0D40424224114000F2230
:1014F0002240092AEBDC3032EAE7C01800230370EF
:1015000010BDC046C073011004740110C8730110EF
:1015100078DD002070B588B0040004AD0026049684
:101520000922002105A812F0B3F800960922002133
:1015300001A812F0ADF84B232B700D22694628004C
:1015400015F016FC002304E05A1D69468A5CE2543B
:101550000133072BF8DD08B070BD0000EFF31080F9
:1015600072B6034B1B68002BFBD0BFF35F8F704735
:101570002C0100D0BFF35F8F024B00221A6080F372
:10158000108870472C0100D0F8B506000C0015003B
:10159000FFF7E4FFE308F718F15C0722224001237C
:1015A00093400B4205D1DBB20B433B70FFF7E2FFE8
:1015B000F8BD210028000FF0E9FDF0B583B006006A
:1015C000019114001F00FFF7C9FF00E00134BC4285
:1015D0000CD8E308F518F35C0721214001228A406A
:1015E0001A42F3D1D2B21A432A7001E001246442B4
:1015F000FFF7C0FF002C02DB200003B0F0BD019B11
:10160000002BF9D008980FF0C1FD000070B505005F
:101610000C00FFF7A3FFE308EE18EA5C07210C407B
:101620000123A340134204D09A433270FFF7A2FF74
:1016300070BD034B034A2C3103480FF00DFDC0462B
:1016400084750110DC750110A4750110002307E0FA
:10165000054A9A189200BFF35F8F00211160013391
:101660001F2BF5D97047C0464000003410B51F2825
:1016700008D8074B9C4660448000BFF35F8F00236F
:10168000036010BD034B044A192104480FF0E4FC29
:1016900040000034EC7501105C76011008760110F2
:1016A000054A1078431CDBB21370172B02D91300C4
:1016B00010221A707047C046500E002000B583B04B
:1016C0000100044B00931F2318220348FFF775FF06
:1016D00003B000BD407601103C20002010B5010091
:1016E00018231B8814221088984710BD10B50100DC
:1016F00018231B8816221088984710BDF0B5C646DF
:1017000000B507000E0000250123984600E00135D2
:10171000B5420AD2AC003C192068FFF7DFFF206019
:101720000028F4D100239846F1E7404680BCB84633
:10173000F0BD0000F8B5DE4657464E464546E0B5DA
:1017400005000F0092460A9A93424ED31A0E914614
:101750001E020A9A00233000494610F049FE8046D6
:101760006C006419A4002F4B9C4664446368834258
:1017700000D260602B1FDBB29B46012B3BD9C023FC
:101780009B012343802212011A60AB00264A99581C
:10179000002905D0506910F0EDFD01300138FDD170
:1017A00053465A0123685A40E0231A4080235B01C4
:1017B00023431A605A46012A28D980239B012343D8
:1017C000802212011A6043466360424600233000C3
:1017D000494610F00DFEAD00134B58510120F0BCEE
:1017E000BB46B246A946A046F8BD104B104A2D2173
:1017F00010480FF031FC012FC1D1C0239B012343BE
:1018000003221A60A368DB07FCD5C9E72168794089
:1018100003220A401A60A2680123BB401342FAD097
:10182000CBE7C04600800040402000206C760110CD
:10183000BC7601108076011030B583B00C2001F029
:10184000C7FFFFF771FB00280DD0002304E09900CB
:101850002D4A2E4888500133092BF8D92A4B2C4A9F
:101860005A6203B030BD2B4B00229A6702F022F877
:10187000294B01221A60274B5B6C012BFBD1274BB4
:1018800003221A60234B9B6B012BFBD10133009386
:101890000433234A0121234801F004FF0523009368
:1018A000214A0121214801F0FDFE214B0093002235
:1018B00002210420FFF73EFF1E4D00952B00002261
:1018C00001210520FFF736FF104C00942300002271
:1018D00000210720FFF72EFF0094230000220021A3
:1018E0000820FFF727FF0A4B009323000022002166
:1018F0000920FFF71FFF00952B0000220021062082
:10190000FFF718FFADE7C04640200020006CDC0266
:101910001BB70000008000403CB0004030B00040E9
:10192000002F685900800240008C864700C00240AA
:10193000001BB700405973078000014BC058704727
:101940004020002010B58300084A944663441C6878
:1019500040226240C02414408022520113431C6084
:10196000C000034B9C466044416010BD04C0014070
:101970000040014080000B4B9C46604400290DD084
:101980000823002A0CD004221343026853400C227F
:101990001340802252011043036070470023F0E798
:1019A0000022F1E704C00140002909D08000094B62
:1019B0009C46604480239B011843022303607047C8
:1019C0008000044B9C466044C0239B0118430223C3
:1019D0000360F4E704C0014070B5D0231B061B6808
:1019E0009D00094C2C59204207D19B002043064CF6
:1019F00018510D2000F042F970BD044B044ACC216F
:101A000004480FF029FBC04664DD0020CC760110AD
:101A100080770110F876011010B50400D0231B0662
:101A20001B689B000A4A9B5818420BD00D2000F0FF
:101A30003FFAD0231B061B6805499B005A58A24356
:101A40005A5010BD034B044AD62104480FF004FB42
:101A500064DD0020307701105C770110F87601100A
:101A6000072303409B00C00899403C308000014B95
:101A7000C150704700400140F8B507000C00160047
:101A80001D00FFF7EDFFFB089B00ED180720384015
:101A900080008440002E04D080239B011D432C60D5
:101AA000F8BDC0239B011D432C60F9E710B5D0237E
:101AB0001B061B68002B03D0024BFFF7DDFF10BD98
:101AC000014BFAE7304101400041014010B50123CC
:101AD0008340D0221206936293610521FFF732FF03
:101AE00010BD0000074B9B68103080001950BFF3F9
:101AF0005F8FBFF35F8F044B0021196082F3108862
:101B00007047C04600ED00E0240100D01F23181AE2
:101B10007047000010B5091A081F0A4B9C46614423
:101B2000094A914208D8C30706D440104005400D29
:101B3000064B184380B210BD054B064AA321064848
:101B40000FF08AFAFC070000FE0F000000E0FFFF24
:101B5000B4770110187A0110E477011010B5091A52
:101B600004394C08090B08D14905490D064A1143AF
:101B70000180064B2343438010BD054B054AAB2132
:101B800005480FF069FAC04600F0FFFF00F8FFFFBC
:101B900018780110EC790110E477011001238340DB
:101BA000034A10681840431E9841C0B27047C046AF
:101BB00000E100E0002904D0034B1860034B1860DB
:101BC0007047034B1860FBE780E200E000E100E0B3
:101BD00080E100E010B5012383401800FFF7EAFF21
:101BE00010BD000001238340014A13607047C046C6
:101BF00000E200E0024B9B6810308000C058704744
:101C000000ED00E010B5FFF7F5FF002805D0054B0B
:101C1000C01A2F2803D8012010BD0020FCE70020A7
:101C2000FAE7C046540E002070B504000D00EFF333
:101C3000108672B60C4B1B68002BFBD0BFF35F8F76
:101C40002000FFF7D7FF094B984201D0A84205D1E9
:101C5000320029002000FFF745FF70BD044B054A04
:101C6000862105480FF0F8F9240100D0CD010010BD
:101C7000287801104C7A0110E4770110F0B5DE46A7
:101C800057464E464546E0B589B08146019115005C
:101C9000EFF3108A72B6744B1B68002BFBD0BFF3B6
:101CA0005F8F724B0027DF57002F40DB7C00E41969
:101CB000A4006F4824180622A2566C4B1A706D4B74
:101CC0009A684B4610339B00D35898461E001B1A47
:101CD0002F2B38D9684B98452FD105AE674B3380F1
:101CE0007B009B46D8198000614B984640440230E7
:101CF0006349FFF70FFF7080624BB380FF23B3711E
:101D0000F571019B07935F44BF0047440ECE0EC799
:101D100001231C43A046524641464846FFF7E2FED7
:101D200009B0F0BCBB46B246A946A046F0BD564B32
:101D3000564AD72156480FF08FF9564B534ADE21A9
:101D400053480FF089F9C04340440C2110F012FBB6
:101D5000002912D101239E43B34633000026DA79CD
:101D6000AA4211D90621595600290CDB4A00521803
:101D700092001E003E4B9B18F1E7474B434AEA2175
:101D800043480FF069F91E00002E3AD005AB434AD4
:101D90001A80813A5A800623F3560293002B17DAF1
:101DA0003F4805AB9B469880029A9A71DD71019A73
:101DB0000792301D2100FFF7ADFEB080B7717B00A8
:101DC000DB199B002A4FFF185B4607CB07C7A2E72A
:101DD0007800C0198000264BC0180430321DB3882B
:101DE000D90A1C2907D15B05591502314900511840
:101DF000FFF790FED5E72B4B2B4AB12124480FF07B
:101E00002BF905AE1D4B33807B000293D81980005F
:101E1000174A9046020042440392901C1849FFF76B
:101E200079FE7080039A101D5946FFF773FEB0804B
:101E30001E4B5A464146521A524153431B0DB37131
:101E4000F571019A0792029B9C466744BF00474484
:101E50000ECE0EC7114B5A461380813B538001238F
:101E60001C43A04657E7C046240100D011E00020E3
:101E7000540E002000ED00E0CD01001000A1FFFF96
:101E8000840E002001BDFFFF60780110347A01103C
:101E9000E477011088780110B07801100148000043
:101EA00001BD000024790110247A0110AAAA0000C3
:101EB000F0B5CE46474680B583B006000D00EFF37F
:101EC000108872B6564B1B68002BFBD0BFF35F8F98
:101ED000544B9A6834001034A300D758524B9F4299
:101EE00007D0AF4200D198E00197504BFB1A2F2B3F
:101EF00009D9424639003000FFF7F4FD03B0C0BCF9
:101F0000B946B046F0BD3000FFF748FE81460021DB
:101F10003000FFF75FFEBFF35F8FEFF3058100290D
:101F200001D08C4211D10123019C9C430022A36863
:101F3000AB4212D00622A256002A0DDB53009B189A
:101F40009B002200394CE418F1E73621384B394A1E
:101F5000FF3139480FF080F82200AB4256D10625F8
:101F60006557002D38DB6B005B199A002F4B9B18CF
:101F70009A68A260DA79E27106229A56A2719B7978
:101F80005BB2002B0FDA2D48A0806B005B199B0021
:101F9000264AD3182A4A117899711570494630009B
:101FA000FFF718FEA5E7201D6B005B199B001F4A79
:101FB0009B181A1D9B88D90A1C2907D15B055B1544
:101FC000023359005118FFF7A5FDDDE71D4B1E4AEE
:101FD000B12119480FF040F8002912D1002A0ED083
:101FE000FF239371194B9380154A1378A371184BF3
:101FF0000E49641A644163431B0D1370CEE70A4F08
:10200000F2E7201D1349FFF7A9FDC7E76A21124B2C
:10201000084AFF3108480FF01FF8034F69E7C04630
:10202000240100D000ED00E0CD010010540E00208E
:102030003C790110047A0110E477011001BD000021
:1020400011E0002024790110247A011001BDFFFF66
:10205000AAAA00008E0E00207079011010B503238B
:1020600004009C43064A9446644422681840C00019
:10207000FC3383409A43130081400B43236010BD1F
:1020800000E400E070B5012101432E4BCB1A2F2B49
:1020900028D8EFF30583002B2BD0EFF3108C72B60A
:1020A000294A1268002AFBD0BFF35F8F274A040039
:1020B000244D641B64416243120D54B2244A926859
:1020C0009B00D2588A421BD00022032A32D85300E8
:1020D0009B189B001B49CB189B795BB2A3421FD076
:1020E0000132F2E7C7211B4B1B4A49001B480EF087
:1020F000B3FF92211A4B184AFF3118480EF0ACFF7B
:10210000134A92681749D150174B1A7882711C7084
:10211000BFF35F8F0C4B00221A608CF3108870BDE8
:102120000D005300991889006918FF268E710F4A17
:102130008A80E9E7D1210E4B074A490007480EF093
:102140008BFFC046540E0020240100D0AAAA000034
:1021500000ED00E078790110D0790110E4770110EA
:10216000A0790110CD01001011E0002001BDFFFF9A
:10217000AC7901100022044B02E0044902C3013291
:10218000072AFAD97047C04600E400E080808080CA
:1021900010B5FFF7BBFC01000148FFF737FA10BD8F
:1021A0001EE0002000B583B00100064B009305231C
:1021B00000220548FFF701FA002801DB1F23181A47
:1021C00003B000BDB47901101EE0002070B504001A
:1021D0000E001500FFF764FA0100200000F006F879
:1021E000A680E580BFF35F8F70BD0000024B9C4668
:1021F00061448900016070474000003410B504005C
:10220000FFF74EFA01002000FFF7F0FFFF232371D4
:10221000BFF35F8F10BD10B50400FFF741FA010056
:102220002000FFF7E3FFFF23237100236371BFF357
:102230005F8F10BD034B9C46614489000160BFF372
:102240005F8F70474000003410B504000120FFF795
:1022500035FA01002000FFF7EDFF10BD70B5050055
:102260000C00080000F0A0FF0949200000F0E0FE8B
:10227000FFF716FA074B9C466044800068602C7597
:10228000D0231B061B786B75A400034BE55070BD73
:10229000A12500104000003498CD00200A4B1A6898
:1022A000EFF3108172B61368002BFCD0BFF35F8F81
:1022B000054B1B68BFF35F8F00221A6081F3108803
:1022C00040BF00200021704788DF002010B50029A2
:1022D00022D003681B7B99421ED8174B9C46614451
:1022E000090183689C4661440C684968002A19D03A
:1022F00003681B7B9A4215D883680F488446624462
:1023000012019A1810685368020001208B4201D80C
:102310000ED00020C0B210BD084B094A3C2109482C
:102320000EF09AFE054B064A3C2106480EF094FE3C
:10233000A242EFD8EDE7C046FFFFFF0FC07B0110C0
:10234000407E0110907B011010B500291ED0037B48
:1023500099421BD84B005B18033B0468A4466344B6
:10236000002919D0002A1DD0914221D0002A25D061
:10237000047BA24222D80468500080180338201839
:102380008170197800291FD11A7010BD104B114AA5
:10239000682111480EF060FE104B114A6F310E4853
:1023A0000EF05AFE0F4B0E4A70210B480EF054FEF1
:1023B0000D4B0B4A712108480EF04EFE044B054AA6
:1023C000682105480EF048FE41701A70DDE7C046EE
:1023D000E47B0110C07E0110007C0110407C0110E4
:1023E0009C7E01104C7C0110587C011070B50600D9
:1023F0000D001400002914D0002A14D080687368DE
:102400009847002806D0220029003000FFF79CFFE3
:10241000280007E02A0021003000FFF795FF200088
:1024200000E0100070BD0800FCE70000F0B583B0CC
:102430000500009201930AAB1C780BAB1F78002CAF
:1024400026D003685A7B944207D10123002B19D16F
:10245000002C3BD1200003B0F0BD002C0CD01A7B27
:10246000944209D81A6863001B19033BD3189B7860
:10247000002BEBD00123E9E73E4B3F4A68213F4860
:102480000EF0EAFD3E4B3F4A67213F480EF0E4FD67
:1024900003689C7B002CDBD012D01A7B94420FD8AF
:1024A00062001219033A19688C4662445178997394
:1024B000002900D1D9730023937053701370C7E7BC
:1024C0002C4B2D4A68212D480EF0C6FD002C3AD029
:1024D0002B681B7B9C4236D82C4BE3181B01AA6847
:1024E00094466344009A1A60019A5A60089A9A6066
:1024F000099ADA602E68002C2BD030D0337B9C42B6
:102500002DD863001B19033B3268944663440022B4
:102510009A705A701A70717B22003000FFF766FFC4
:102520007073844200D095E7287D009A019B00F0EB
:10253000C7FD061E01D0002F17D00C9B002B00D129
:1025400088E71E7086E7124B124A3C210E480EF0B7
:1025500083FD114B114AA52108480EF07DFD054B66
:10256000054A682105480EF077FD2868210001F032
:102570001DF8E2E7E47B0110C07E0110007C011031
:10258000707C0110CC7E0110907B0110FFFFFF0FCB
:10259000C07B0110407E01108C7B0110B07E0110C9
:1025A000F0B5DE4657464E464546E0B58BB009903D
:1025B000002308938200B54BD658370052E0B44B45
:1025C000B44A3F21B4480EF047FDB44BB44A3C2115
:1025D000B4480EF041FD002901D1002869D1002145
:1025E000404600F0D9FFA04219D12A686B680692D4
:1025F0000793AB689846EB689A464346002B14D085
:10260000002C18D03B681B7B9C4214D8631EFA68D0
:10261000D35C08931B0218433861002015E0A24BDD
:10262000A24A8E219F480EF017FDA14B9F4A92218E
:102630009C480EF011FD994B9E4A412199480EF09D
:102640000BFD00239A46984600207B68BFF35F8FFE
:1026500000221A6086F310884346002B32D10028EE
:1026600000D10CE100F0C4FC02000B1EA7DB00202F
:102670000021069007917868EFF3108672B6016822
:102680000029FCD0BFF35F8F396888464C7B002C53
:10269000D7D09AD0097B8C4297D8874965182D01ED
:1026A000B9688C46654428686968801A9941002990
:1026B00091DD2A686B68099800F002FD00239A46B4
:1026C0009846C2E7089B1B022343994651461800CF
:1026D000C04705000E007A68EFF3108B72B61368DE
:1026E00059424B41D9B2002BF9D1BFF35F8F002E75
:1026F0001EDB002E46DD3B69002B47D04B456DD1DC
:1027000000F076FC02000B1E6EDB52197341002BA9
:1027100070DB002B72DB00210491013103910294E4
:1027200051460191414600913800FFF77FFE4CE091
:102730003B69002BDDD04B4514D1069A079B521BF9
:10274000B341002B14DB002B16DB00210491013177
:102750000391029451460191414600913800FFF7E0
:1027600065FE32E0554B514AA1214E480EF074FCF3
:1027700001225242524BE6E7454B464A3F2146482A
:102780000EF06AFC002E01D1002DB4D13B68002C64
:1027900050D05A7B944237D1012100294AD1DA7BAB
:1027A000002A4DD19A7B002A03D1DA7B002A5AD124
:1027B0009C73DC73002C5CD03B681B7B9C4258D81C
:1027C000FA68013C135D0133135500233B617A68BD
:1027D000BFF35F8F13608BF3108843E7374B334AA7
:1027E000A42130480EF038FC294B2A4A3F212A48C0
:1027F0000EF032FC01225242314B8AE7244B254A2B
:102800003F2125480EF028FC002C0DD01A7B944265
:102810000AD862001219033A186884466244927812
:10282000002ABAD00121B8E7264B274A6821274859
:102830000EF012FC264B274AF62124480EF00CFC21
:10284000002A0AD0197B8A4207D851008A18033A15
:1028500019688C4662445470A4E71A4B1A4A6821DE
:102860001A480EF0F9FB1C4B1A4AFB2117480EF0D0
:10287000F3FB0A4B0F4A41210A480EF0EDFB0BB067
:10288000F0BCBB46B246A946A046F0BD98CD00209C
:10289000207101100C7E01103C710110C07B0110F1
:1028A000407E0110907B0110987C0110247E011065
:1028B000B07C0110787E0110FFFFFF0FBC7C01107F
:1028C000FFFFFF7FE47B0110C07E0110007C011040
:1028D000F87C01108C7E01101C7D011010B50C4B92
:1028E0005B68002B04D00A210A48FFF77FFC10BD6B
:1028F000074C2300084A1021206800F03FFD032008
:1029000000F052FB03212000FFF7A8FCEBE7C046D4
:102910009C0E002088DF0020CD22001010B5064B51
:102920005B68002B01D0044810BD044B044A5E21B3
:1029300004480EF091FBC0469C0E0020307D011033
:10294000607E0110907B011070B50500182010F01A
:1029500049FE040002000C49280000F016FD20602A
:102960001021280010F05CFEA0600121280010F06A
:1029700057FEE060012000F02BFB01002000FFF774
:102980006DFC200070BDC046CD22001010B50400C3
:10299000164B98421DD0037D9900154A8A588242F1
:1029A0001DD19B00124A00219950006800F003FDE0
:1029B000207D002100F03CFB207D00F001FBE06861
:1029C00010F04EFEA06810F04BFE200010F048FE04
:1029D00010BD084B084AD32108480EF03DFB084BB8
:1029E000054AD72105480EF037FBC0469C0E002053
:1029F00098CD0020707901104C7E0110907B011061
:102A0000547D0110F0B5DE4657464E464546E0B5CA
:102A10008BB0804616001F00149B9A46159B994662
:102A200016AB1B789B461F2302AA944663440022E0
:102A30001A702BE0002809D042461268127B90429F
:102A400004D8421E4146C9688A5C41E0404B414A75
:102A5000412141480EF000FB07984CE0361BAF4186
:102A6000002F07DB002F11DA3C4B3D4A3F213D4848
:102A70000EF0F2FA012676423B4FF3E7374B384A25
:102A80003F2138480EF0E8FA002F4FDB43465A68E2
:102A9000EFF3108472B6136859424B41D9B20791D3
:102AA000002BF8D1BFF35F8F1F3302AA9446634413
:102AB00004930023039302934B46019353460093E0
:102AC00032003B004046FFF7B1FC031EB2D10200CA
:102AD00041464968BFF35F8F00250D6084F310887D
:102AE000002B29D01F2302A98C4663441B78002B9E
:102AF000B2D112021043002B20D05B46002B1DD018
:102B00004946D04704000D0003000B431DD00029A7
:102B1000A4DB00F06DFA06000F1EAFDB36196F4123
:102B2000002FB1DA012676420F4FADE70B4B0C4A6E
:102B30003F210C480EF090FA012040420BB0F0BC4F
:102B4000BB46B246A946A046F0BD0798F6E7C04688
:102B5000C07B0110787E0110907B01102071011064
:102B60000C7E01103C710110FFFFFF7FF0B589B0B2
:102B700005001F216944002008706868EFF3108782
:102B800072B601680029FCD0BFF35F8F1F21694432
:102B9000049101210391002102910F9901910E9955
:102BA00000912800FFF742FC0400031E12D106002A
:102BB0006A68BFF35F8F0021116087F31088002BD4
:102BC0001CD01F236B441B78002B13D130022043F1
:102BD00009B0F0BD002807D02A68127B904203D8C4
:102BE000421EE9688E5CE3E7064B074A412107482D
:102BF0000EF032FA287D00F0F7FAE7E701204042B4
:102C0000E6E7C046C07B0110787E0110907B011082
:102C1000F8B504004268EFF3108572B613685842A5
:102C20004341D8B2002BF9D1BFF35F8FCBB22268FA
:102C3000567BB3421BD10120002848D0206988422E
:102C40002BD0090AC9B2002B2ED02068007B83420A
:102C50002AD8581EE668305C88422BD00020636872
:102C6000BFF35F8F00221A6085F31088F8BD002B38
:102C70000DD0167BB3420AD85E00F618033E1768E3
:102C8000BC466644B678002ED6D00120D4E7134B5C
:102C9000134A682113480EF0DFF99521124B134AAD
:102CA000490013480EF0D8F9124B134A412110483D
:102CB0000EF0D2F91900100000F078FC0028CED1F7
:102CC00032210E4B094AFF3109480EF0C5F923693C
:102CD0008B42C4D100232361C1E7C046E47B0110CD
:102CE000C07E0110007C01107C7D0110F47D01107C
:102CF000907B0110C07B0110787E0110A07D011037
:102D0000407D7047F0B587B006000F00EFF30583F4
:102D1000002B1FD106246442E517A4197D418D4282
:102D200002D803D1844201D900240025002D14DBF0
:102D30000494059500F05CF902000B1E13DBA41A45
:102D40009D41002D17DC14D03000390000F05CF9F3
:102D500007B0F0BD23480EF019FA234B234A3F2158
:102D600023480EF079F9204B204A3F2120480EF0ED
:102D700073F9002CE8D0FFF7D1FD002302930193F3
:102D80001C4B0093049A059BFFF73CFE002818DAC1
:102D9000DAE7002300E00023002BD5D1164B1A6898
:102DA000EFF3108172B61368002BFCD0BFF35F8F76
:102DB000114B1B68BFF35F8F00221A6081F31088EC
:102DC00020BF0499059A0D4B5B6A9A42E3D80B48E1
:102DD000806A884203D29A42DBD00123DCE70123D8
:102DE000DAE7C046A47D0110207101100C7E0110AD
:102DF0003C7101109D22001088DF0020004005403A
:102E000070B504000D0000F0F3F802000B1E0ADBA1
:102E1000200029008018594100290ADB00290CDB19
:102E2000FFF770FF70BD084B084A3F2108480EF0BD
:102E300013F9012040420749F0E7034B034A3F21C1
:102E400003480EF009F9C046207101100C7E0110F4
:102E50003C710110FFFFFF7F10B5FA2292000023A2
:102E6000002110F009FBFFF7CBFF10BD70B584B057
:102E700005000C00EFF30583002B1ED1FFF74EFD7C
:102E8000002302930193224B00932A002300FFF7B3
:102E9000B9FD061E23DD20BFFFF740FD3100FFF71F
:102EA000B7FE1C4B5B6A9C422DD81A4A926AAA4212
:102EB0002CD29C4225D0012026E0164B5B6A994219
:102EC00009D8144A926A824207D2994201D001205D
:102ED0001AE0002018E0002016E0012014E00D4B5D
:102EE0005B6A9C4209D80B4A926AAA4207D29C426A
:102EF00001D0012008E0002006E0002004E00120CD
:102F000002E0002000E0002004B070BD0120FBE7DB
:102F10009D2200100040054070B5EFF30580103889
:102F2000EFF3108C72B61A4B1B68002BFBD0BFF36B
:102F30005F8F01221300834016494B6316490B60D3
:102F4000164909780C00C440224214D0114A546A30
:102F50008200134D5259944206D38200114C1259EB
:102F600099430E4B197007E00A4A031D9B009958BC
:102F70009950002200E00022BFF35F8F044B002134
:102F800019608CF31088002A00D0904770BDC046AD
:102F9000280100D0004005403C7005401DE00020A5
:102FA0009CDF0020041E002010B50100024A0348E7
:102FB000FEF7EAFA10BDC046F07E01100BE00020DB
:102FC00010B501000148FEF721FB10BD0BE0002009
:102FD00000B583B00100044B009303230022034893
:102FE000FEF7EBFA03B000BD147F01100BE00020E8
:102FF000044B5B6A034A906A1900536A9942F9D1FB
:103000007047C04600400540084B5B6A01E0074B33
:103010005B6A8B42FBD301E0044B5B6A8B4203D1BA
:10302000024B9B6A8342F7D37047C046004005407D
:1030300070B504000D00EFF3108672B61B4B1B68D1
:10304000002BFBD0BFF35F8F002D1CD02000FEF7BC
:10305000D1FD174B83420BD019002000FEF7E4FD91
:1030600001212000FEF7B6FD0123A340114A1360A1
:10307000A400114BE550BFF35F8F0C4B00221A6088
:1030800086F3108870BDA2000B4B0021D1500122A5
:10309000A2400A490B7893430B7005492000FEF7C4
:1030A00007FF00212000FEF795FDE4E7280100D08E
:1030B000192F001038600540041E00201DE000207C
:1030C000F0B5DE4600B584B00400150001921E0084
:1030D0000293FFF78DFF03958E4202D84ED18542B1
:1030E0004CD9EFF3108B72B6274B1B68002BFBD02B
:1030F000BFF35F8F254A17780125A540EBB23B430C
:103100001370234B5D63221D92000199D150A200E0
:103110002049029850501B6A2B4212D11C4B1B6C49
:103120002B4208D00020BFF35F8F174B00221A609C
:103130008BF3108823E0184B184AC52118480DF06E
:103140008BFFFFF755FF8E4214D802D1039B8342B9
:1031500010D80E4B1B78BB420ED00D4B1D625D6329
:103160001F2004400123A3400E4A1360074B1F7029
:103170001E38D8E70020D6E70120D4E7012004B0AC
:1031800080BCBB46F0BDC046280100D01DE0002039
:10319000004005409CDF0020287F0110847F011043
:1031A0004C7F011080E200E0EFF3108C72B60B4B05
:1031B0001B68002BFBD0BFF35F8F01238340084ABD
:1031C000136208490A789A430A70BFF35F8F034B72
:1031D00000221A608CF310887047C046280100D086
:1031E000004005401DE00020EFF3108C72B60B4B41
:1031F0001B68002BFBD0BFF35F8F01238340DAB243
:103200000749087802430A70BFF35F8F034A002121
:1032100011608CF31088034A13607047280100D0B6
:103220001DE000203C60054010B500291ED0037B46
:1032300099421BD84B005B18033B0468A4466344C7
:10324000002919D0002A1DD0914221D0002A25D072
:10325000047BA24222D8046850008018033820184A
:103260008170197800291FD11A7010BD104B114AB6
:10327000682111480DF0F0FE104B114A6F310E48D5
:103280000DF0EAFE0F4B0E4A70210B480DF0E4FEE4
:103290000D4B0B4A712108480DF0DEFE044B054A28
:1032A000682105480DF0D8FE41701A70DDE7C04670
:1032B000E47B011084800110007C0110407C01102F
:1032C000708001104C7C0110587C011070B5060014
:1032D0000D001400002914D0002A14D080687368EF
:1032E0009847002806D0220029003000FFF79CFFF5
:1032F000280007E02A0021003000FFF795FF20009A
:1033000000E0100070BD0800FCE7000010B50023CD
:10331000437301338373037BC3730123027B9A429C
:1033200014D9002B0CD0027B934209D85A00D21832
:10333000033A01688C4662440133DBB25370EDE717
:103340000B4B0C4A68210C480DF086FE002A09D070
:10335000924207D8016853009A18033A8A1800234A
:10336000537010BD024B034A682103480DF074FEF0
:10337000E47B011084800110007C011010B5017302
:1033800042608360FFF7C2FF10BDF8B505000E0074
:1033900017001021012010F043F904000321280038
:1033A00010F03EF920603B00320029002000FFF7BA
:1033B000E5FF2000F8BD10B50400006810F050F9DA
:1033C000200010F04DF910BD70B50400081E00D1AA
:1033D00070BD002934D0237B994231D84B005B1853
:1033E000033B2268944663445A78002AF0D02DD0DB
:1033F000237B9A422AD853009B18033B21688C46B2
:1034000063445D7800215970002825D0237B9842C1
:1034100022D843001B18033B21688C4663440021DB
:10342000597001002000FFF751FF0600290020001D
:10343000FFF7CAFF020031002000FFF747FFC7E790
:10344000084B094A682109480DF006FE054B064A5B
:10345000682106480DF000FE024B034A682103482C
:103460000DF0FAFDE47B011084800110007C011056
:1034700070B505000C00160000292FD034D0037B56
:10348000994231D84B005B18033B02689446634471
:103490005A78002A2ED19A78002A31D11978FFF76C
:1034A00093FF0300002E0AD0EA7B002A2ED1AA7BCC
:1034B000002A03D1EA7B002A3BD1AC73EC73002BCA
:1034C0003DD1002C4FD02B7B9C424CD82B68610007
:1034D0000C19033C1C190023637070BD254B264A50
:1034E000382126480DF0B8FD254B264A682126488C
:1034F0000DF0B2FD254B204A3A2120480DF0ACFDDD
:10350000234B1D4A3B211D480DF0A6FD002A0AD081
:10351000297B8A4207D851008A18033A29688C46C9
:1035200062445470C3E7164B164A682116480DF0E2
:1035300093FD184B104A422110480DF08DFD002BD1
:103540000BD02A7B934208D843001B18033B2A6800
:103550009446634400229A70B3E7094B094A6821F4
:1035600009480DF079FD064B064A682106480DF022
:1035700073FDC046A07F01105C800110A87F011080
:10358000E47B011084800110007C0110D87F0110C1
:10359000008001101C7D011070B504000A00457BFD
:1035A0002900FFF765FF6073280070BD70B5040047
:1035B000002967D0437B8B420ED0002911D0037BBA
:1035C00099420ED84B005B18033B0268D0188378F1
:1035D000002B0CD1002056E00121FFF7DDFF012078
:1035E00051E0294B294A682129480DF035FD002B6F
:1035F00020D0227B93421DD85A00D318033B226867
:10360000D2182568EB5C8B421AD0002B1BD0227B92
:10361000934218D85A00D318033B2268D218537823
:103620008B4216D0002BF0D11A4B1B4A6B211B4842
:103630000DF012FD144B154A682115480DF00CFDD4
:103640004378137007E0104B104A682110480DF0C2
:1036500003FD4378537000238370437001222000E0
:10366000FFF706FF0200617B814205D02000FFF7D3
:103670002DFE6073012006E0094B074A71210748BF
:103680000DF0EAFC002070BDE47B01108480011085
:10369000007C0110AC79011044800110A87F01105A
:1036A00024800110F0B5C64600B504000D001700D7
:1036B00098460C200EF05EFE0600394BFA18394B86
:1036C0009A4241D843011B1A9901C91AC900091825
:1036D000890138000EF04EFE0200103A98235B007C
:1036E0009A4237D84346013B062B39D8069B013B0B
:1036F000062B35D83F09B74238D343461E04069BF4
:103700001A0316432368002B36DB274B9C4244D018
:1037100080225201254B1A60254B1A60254B9B686D
:1037200011009943FAD12560A060231DC0229201A7
:103730001A43212313602368002BFCDAE660082378
:10374000136080BCB846F0BD1B4B1C4A11211C48BD
:103750000DF082FC1B4B194A192119480DF07CFC15
:10376000194B164A1C2116480DF076FC174B134ACC
:10377000232113480DF070FC22683F231340AB4215
:10378000C3D1A3681B051B0D8342BED1E368EE22A3
:10379000D2021340B342B8D1D3E780229201B9E7F5
:1037A00080E84BD380F8A93200C0024000E000401E
:1037B00000F0004000C0004090800110A88101107E
:1037C000F080011024810110408101108C810110D2
:1037D00080239B000343014AD36270470080054069
:1037E000024B1A68024B5A607047C046783300207B
:1037F0000080054010B50200164B8020C0051860FF
:10380000154B1648186000290AD0154BE021C90451
:103810001960002A09D1124B802212061A6010BDCD
:103820000C4BE021C9041960F3E753019B1A98007F
:10383000801800010B4B186080235B04984202D370
:10384000084B094A1A60FFF7CBFF054B8022D205CF
:103850001A60E4E700B0054008200140FCFF0100C9
:1038600000A0054078330020FFFFFF0010B50300E3
:1038700010000C4A8024E4051460002B0DD00122B6
:103880001343094A094CD461094C5C4014625162EB
:1038900093620021FFF7AEFF10BD034B0022DA61F7
:1038A000F7E7C04600B0054000800540D3C007B030
:1038B0002D3FF84F064BAA2212011A602F22DA6020
:1038C000044B054A1A60024B5B68002BFBDA704719
:1038D000004002400060024000B0FA0010B501F064
:1038E00053FC00F0C5FB00F09DFD00F041FE05F02B
:1038F0004BFD01F009FD00F018FA05F07DFC10BD4C
:103900000302000A184380B2704703060202FF2137
:1039100009040A401343020AFF2109020A40134323
:10392000000E18437047000000280AD0C07A002813
:1039300009D1431C9B00054A9B58002B04D0012051
:1039400002E0002000E000207047C046EC2A002082
:1039500010B5FDF79BFD80B2002301E00133DBB21F
:10396000032B0FD81A01D218120107498A18927A2C
:10397000022AF3D11A01D21812018A18128982423E
:10398000ECD1E6E710BDC046F42A0020F0B5D646DB
:103990004F464646C0B506008846002401E0013483
:1039A000E4B2032C23D8250063001B199B00314A85
:1039B0009F58002FF3D063001B199B00D3181B7A6C
:1039C000B342ECD130018019000110302A4BC018ED
:1039D0009246630099461B199B0053445A6841461E
:1039E000B8474D44AD0000235246AB50D7E7002303
:1039F00001E00133DBB2032B1BD8B342F9D01A012B
:103A0000D21812011C498A18927A022AF1D11A019D
:103A1000D21812018A18D07B3201921912018A1829
:103A2000D27B9042E5D133019B191B01CB180422B4
:103A3000DA7333019B191B010F4AD318DB7B032B6D
:103A400004D9E0BCBA46B146A846F0BD0B4C9B0079
:103A5000185905F097FF084A300183191B01D31844
:103A6000DB7B9B00002119518019000110180423F1
:103A7000C373E6E7BC2A0020F42A0020AC2A002009
:103A8000F0B5D6464F464646C0B584B080460301E1
:103A900043441B01534AD318DB7A012B34D89B00D3
:103AA000514A9B58002B32D0040144442401103465
:103AB0004C4BE418200012F0ADFFA022123081B26E
:103AC0009200362000F0E8FF8146002800D185E012
:103AD00001AD0C22002128000FF0DAFD43461B0146
:103AE00043441B013F4AD3181889FFF709FF288078
:103AF0000123AB70FF33AB800C222900484601F054
:103B0000F3F9661E0C2737E038480DF03FFB002123
:103B1000FFF73CFF4346180140440701314BDF19D2
:103B20000023BB720024200004B0E0BCBA46B146BA
:103B3000A846F0BD0134E4B2013633782E2B01D013
:103B4000002BF7D1731B9BB29A463B19284A93422C
:103B500016DC22003900484601F060FA7B1C9BB25B
:103B600052462900484601F00BFA3C19A5B26F1CD9
:103B7000BFB23378002B09D0013635000024DCE7D2
:103B8000484600F04BFF06246442CCE7002239008F
:103B9000484601F043FA0235ABB280225200694632
:103BA0000A804A80FC3A484601F0EAF90D4943464A
:103BB0001B0142469A1812018A18D07BD37A9B00C7
:103BC000094AD21880000B4940583523494605F070
:103BD00051FE0400484600F021FFA4E7012464429E
:103BE000A1E7C046F42A0020EC2A0020B48101108D
:103BF000FEFF0000AC2A002070B50400000100198F
:103C00000001414BC018032C20D823011B191B01B4
:103C10003D4AD3189B7A022B34D01AD8002B14D0EB
:103C2000012B00D06CE0FFF793FE374922011319F6
:103C30001B01CB181881022098720020D872012530
:103C40001D7358732000FFF71BFF70BD2F480DF048
:103C50009DFA032B54D123011B191B012A4A9B589F
:103C6000002B07D0013B22011219120126495350A3
:103C7000002BEAD120010419240123480419002350
:103C8000A372E2E723011B191B011F4AD218137B01
:103C9000013BDBB21373002BD7D123011B191B018E
:103CA000194AD218537B0133DBB25373042B09D06A
:103CB00022011219120114498A1813732000FFF708
:103CC000DFFEC2E7FFF730FE00280DD00E492201CB
:103CD00013191B01CB18D87A0130D8720120187340
:103CE0001A0000235373E9E700212000FFF74EFE7E
:103CF000200104192401044B1C190023A372A4E71A
:103D000003480DF043FAC046F42A0020CC8101108C
:103D1000E881011010B5002404E02000FFF76CFFDB
:103D20000134E4B2032CF8D910BD7047012800D942
:103D30007047002904D080000A68044BC250F7E79E
:103D40008000034B1A68014BC250F1E7EC2A0020B7
:103D500084A8011010B5FFF7DDFF10BD30B583B0AA
:103D60006B460022DA8001231D000540184206D070
:103D7000002904DD02786B46DA7101390130032233
:103D800013000340104209D0012903DD03880239E2
:103D9000023003E0002301E00839200007290CDD90
:103DA0000268D218934200D90132040008344368F3
:103DB0009B189A42F0D90133EEE71A0C1B041B0C36
:103DC000D31803E002889B18023902300129F9DC7C
:103DD000002902DD01786A4691716A46063212882E
:103DE000D318180C1B041B0CC318180C1B041B0C39
:103DF000C018002D05D003061B0C020AFF2010403E
:103E0000184380B203B030BDF0B583B00600019115
:103E100015001C00002700E03668002E15D07189BF
:103E20007068FFF79BFF0019040C0004000C2418B5
:103E30007389DB07F0D57B425F41FFB22206120C8B
:103E4000230AFF241C401443E6E7002F05D0220676
:103E5000120C230AFF241C4014436B469888FFF77A
:103E60004FFD24182800FFF74BFD2018030C000419
:103E7000000C1818030C0004000C1818C04380B282
:103E800003B0F0BD70B51C6825042D0C230C5B1924
:103E9000049C246825042D0CED18230C5B191C0CC4
:103EA0001B041B0CE3181C0C1B041B0CE318FFF772
:103EB000ABFF70BD10B582B0049C0094FFF7E2FF29
:103EC00002B010BD10B5FFF749FFC04380B210BD6E
:103ED00070B505000026002400E02D68002D15D0E7
:103EE00069896868FFF73AFF0019040C0004000CA8
:103EF00024186B89DB07F0D573425E41F6B22306C6
:103F00001B0C240AFF2004401C43E6E7002E05D0CA
:103F100023061B0C240AFF2004401C43E04380B20C
:103F200070BD0000014B1B6818187047A8CD002019
:103F3000024B1B68C01A80B27047C046A8CD002053
:103F4000F8B50400FFF7F4FF050027883800FFF7F5
:103F5000E9FF060064882000FFF7E4FFFA231B0155
:103F60009F420FD89C420FD8AC4202D00388AB428C
:103F70000CD1094B1B68B3420AD07388AB4209D1FC
:103F8000012000E00020F8BD0020FCE70020FAE757
:103F90000120F8E70020F6E7ACCD002070B5040062
:103FA0002C4B1B68834242D82B4B1D68854241D95C
:103FB0000379002B41D10088FA231B0198423FD896
:103FC000FFF7B0FF844216D00379002B13D185424E
:103FD00011D0224B1B68834235D003882380008890
:103FE000FA231B01984206D0FFF79CFF0500200032
:103FF000FFF79EFF68806088FFF794FF050084420A
:1040000014D00379002B11D1144B1B68A3421DD08F
:1040100023882B802088FA231B01984206D0FFF7C3
:1040200081FF04002800FFF783FF608070BD0C480B
:104030000DF0ACF80B480DF0A9F80B480DF0A6F800
:104040000A480DF0A3F8054B1C60C6E7034B186047
:10405000DEE7C046A8CD0020ACCD002074330020A0
:1040600008820110208201103C8201105882011048
:1040700070B50C4C033403239C430B4B1C60FA2596
:104080002D0125800023638023712800FFF74AFF5C
:10409000064B18600123037105804580044B1C60AA
:1040A00070BDC046B0CD0020A8CD0020ACCD002012
:1040B0007433002070B5041E23D0830722D105007D
:1040C000083D164B1B68AB421FD803000C33144A43
:1040D0001268934219D80300083B1B79002B17D0B4
:1040E0002800FFF72DFF002815D0083C002323717E
:1040F0000C4B1B68AB4201D90A4B1D602800FFF72F
:104100004DFF70BD08480DF041F808480DF03EF82D
:1041100007480DF03BF807480DF038F8A8CD00200F
:10412000ACCD00207433002084820110A8820110DD
:10413000C4820110EC820110F0B5C64600B505003E
:10414000CC1CA4B203239C430B2C05D9FA231B01DE
:104150009C4202D900253FE00C248C4200D277E03B
:104160003C4B1B68AB423BD83B4B1B68AB4237D93F
:104170002F00083F3800FFF7DBFE06003F883B1AA0
:104180009BB2083B9BB298469C422CD824D0380066
:10419000FFF7C8FE0379002B31D1FA231B019F42A0
:1041A00024D00788A419A4B20834A4B22B4B1B68EE
:1041B00083421ED02000FFF7B5FE00230371078065
:1041C00046802B00083B1C800088FA231B01984284
:1041D00002D0FFF7A7FE4480280080BCB846F0BD9F
:1041E0001F480CF0D3FF1F480CF0D0FF1E480CF006
:1041F000CDFF2000FFF796FE184B1860DAE723008A
:1042000014334345E8D8A419A4B20834A4B2FA235D
:104210001B019F4219D02000FFF784FE0F4B1B6843
:10422000834201D90D4B1860002303712B00083B1A
:104230001A88028046801C800088FA231B0198425D
:10424000CAD0FFF76FFE4480C6E707480CF09EFF18
:104250000025C1E7A8CD0020ACCD0020743300209C
:10426000208301103883011058830110F0B5CE4629
:1042700000B582B0002800D182E0C51CADB2032297
:1042800095430B2D05D9FA231B019D4202D900202D
:1042900072E00C25854200D274E03B4B1B689946C6
:1042A0001800FFF745FE070032E038480CF06EFFBB
:1042B00001230371A14510D0019BE5180835344B4B
:1042C0001B689D421DD8A3071ED12000083053E073
:1042D0004B461888FFF726FE81464B461B79002B7C
:1042E00003D02B4A12684A45F2D1274A4946116049
:1042F000274A12684A45DFD0002BDDD025480CF054
:1043000045FF25480CF042FF24480CF03FFF27886A
:104310003E000195FA231B015B1B9F422BD2380004
:10432000FFF700FE04000379002BF0D103889E1BE9
:10433000083E019B9E42EAD314339E42B8D37E19B5
:10434000B6B20836B6B2FA231B019E42ADD0300099
:10435000FFF7E8FD00230371238803804780268050
:10436000012323710088FA231B019842A2D0FFF792
:10437000D9FD46809EE7002002B080BCB946F0BD62
:104380000020F9E70020F7E774330020588301107C
:10439000ACCD00206C83011088830110B88301101C
:1043A00010B50400FCF79CFCE3681C68002C0AD0E4
:1043B00022681A60A30703D1FCF794FC200010BD0B
:1043C00002480CF0E3FEFCF78DFCF7E7E8830110F0
:1043D00070B505000C008B0709D1FCF781FCEB6878
:1043E0001B682360EB681C60FCF77CFC70BD014817
:1043F0000CF0CCFE0C840110C36800221A608368A4
:10440000033303329343002207E0C168096819604F
:10441000C1680B6081885B180132C1889142F4DC6D
:104420007047000010B5002406E0A200044BD058ED
:10443000FFF7E2FF0134A4B2082CF6D910BDC04644
:104440005C85011010B5082805D88000044BC058C1
:10445000FFF7A6FF10BD03480FF078FA0020F9E738
:104460005C8501102C84011010B5082807D800299C
:1044700004D08000044BC058FFF7AAFF10BD0348CA
:104480000FF064FAFAE7C0465C8501104C84011015
:104490000B688268934206D0002902D08360012015
:1044A00070470023FAE70020FAE70B68C2689342DE
:1044B00006D0002902D0C360012070470023FAE72C
:1044C0000020FAE70C204042704770B504000D0050
:1044D00001F046FA2900200005F084FA29002000A6
:1044E00000F036FE70BD000010B500280DD0392355
:1044F000C25C343B1340052B06D1CB0704D543687F
:10450000002B01D0130703D410BD03480CF03EFE6E
:10451000011D06F04FFEF7E78085011030B583B02E
:1045200005000C001000002908D0002A09D06B6893
:104530000A689A4208D1002003B030BD0B480CF045
:1045400025FE0A480CF022FE0192036001A9FFF744
:10455000BCFF23686B6001212800FFF7C5FFEB69F2
:10456000002B01D0280098470120E5E7A485011021
:1045700070470000F0B5C64600B582B005000C00DB
:1045800017001E00002920D0002F20D0002E20D0A0
:10459000002C02D02368002B1DD101AA2100280085
:1045A000FFF7BCFF01239846002239002800FFF7DF
:1045B0006FFF002231002800FFF777FF4346002BF2
:1045C0000CD002B080BCB846F0BD074CDCE7064F0B
:1045D000DCE7054EDCE700239846E5E701AA210069
:1045E0002800FFF79BFFECE784A80110F0B5C64652
:1045F00000B504000E0017009846002832D0079B33
:10460000002B34D0002937D0002F37D04346002B61
:1046100036D000256560A560E560354B6361258671
:1046200000223923E25420002830042200210FF018
:104630002FF8E5612562069B63622E4B1A783C23B6
:10464000E254089B236143463A0031002000FFF703
:1046500091FF2000079B9847002823D0002080BCB2
:10466000B846F0BD24480FF071F92000F7E7234861
:104670000FF06CF90020F2E7214EC5E7204FC5E7A7
:104680001F4B9846C5E7C33B0022E2540EE01D488D
:104690000CF07CFD1C480CF079FD01313C22A1544A
:1046A000002B15D03C23E35CFF2BECD0174B1D688F
:1046B0002B000022002BF3D09C42E8D00132FF2ACD
:1046C000E8DC3C21585C615C8842E6D01B68F1E77D
:1046D0003C33E35CFE2B07D00133064A13702560A0
:1046E0000A4B1C602000BAE7024B00221A70F6E762
:1046F000C544001014E00020B4850110D0850110DD
:1047000084A80110F48501100886011080CD0020D6
:10471000014B18607047C0467CCD002010B5041EC8
:1047200010D03923C35CDA070BD40122134339229A
:104730008354C369002B00D0984703212000FFF762
:10474000D3FE10BD01480FF001F9FAE738860110D9
:1047500010B5041E0FD03923C35CDA070AD5012235
:104760009343383283541B0709D4E369002B01D0EB
:104770002000984710BD03480FF0E8F8FAE706F06C
:104780006BFCF2E75486011010B5041E28D0436874
:10479000002B12D13923E35CDB0713D4114B1B68C8
:1047A000A34213D0104B1B68A34213D0002B17D089
:1047B0001A68A24212D01300F8E704300021FFF774
:1047C00084FEE7E72000FFF7C3FFE7E70020FFF7DD
:1047D0009FFFE7E72268044B1A6001E022681A6035
:1047E00010BDC0467CCD002080CD002010B5041E39
:1047F00004D03923C35C5A0704D510BD09480FF013
:10480000A5F8FAE7042213433922835406F02EF860
:1048100003212000FFF768FE236A002BEDD0200063
:104820009847EAE77486011010B500280CD03923A8
:10483000C35C5A0707D50422934335328354036A75
:10484000002B00D0984710BD01480FF07FF8FAE721
:1048500098860110021E0BD0064B1868002808D05D
:104860003C23C35C0133DBB2934202D00068F5E71E
:104870000020704780CD002030B504AC257800249E
:10488000046041600281438103AB1B78037345736D
:1048900001238373C47330BD02E0C91A89B2006872
:1048A000002802D043898B42F7D9002A00D011801A
:1048B0007047000010B5FCF713FA034B01221A7081
:1048C000FCF710FA10BDC04616E0002070B50028B5
:1048D0001AD080235B02994221D2002921D08CB2C8
:1048E00003891B199BB2A3421DD30C254557002DEC
:1048F0000DDB002A19D04268511A4160428914190F
:104900004481038100200BE009480CF03FFC426821
:10491000511A020010328A42EFD9012000E0012032
:1049200070BD0020FCE70120FAE70120F8E7C0464F
:10493000BCA1011010B5FCF7D3F9084B00221A7086
:10494000FCF7D0F9064B186800E0C068002804D0D6
:10495000436F002BF9D000F08FFE10BD16E0002051
:10496000ACDF0020F0B583B007000E001500412A2F
:1049700001D0012A0FD10720FFF764FD041E07D0E4
:10498000002301930095330032003900FFF774FFD4
:10499000200003B0F0BD01480CF0F8FBBC8601100C
:1049A00010B50022FFF792FF10BD000010B50028DF
:1049B00014D080235B02994218D2002918D08AB201
:1049C000438993420DD34468A446614441609B1AD5
:1049D000438103899A1A0281002010BD05480CF01A
:1049E000D5FB05480EF0B2FF0120F6E70120F4E701
:1049F0000020F2E7BCA10110D086011010B50029FB
:104A000002DBFFF763FF10BD4942FFF7CFFFFAE774
:104A100010B50122FFF7F2FF10BD000070B5051EB2
:104A200001D000260CE019480CF0B0FB18480CF03F
:104A3000ADFB29000820FFF717FD0136F6B225006F
:104A4000002D21D0FCF74CF9AC7B002CEED0013CC2
:104A5000E4B2AC73FCF746F9002C15D12C682A7B24
:104A60000F231340022BE4D0012B05D0002B08D1DB
:104A70002800FFF71FFBE0E729000720FFF7F4FC01
:104A8000DBE704480CF082FB300070BDBCA10110D4
:104A9000F086011008870110F0B5D6464F4646460D
:104AA000C0B582B005000F00904684B2C1235B0000
:104AB0009A4241D011D8012A02D0412A00D07DE08B
:104AC000424639000020FFF74DFF8146484602B0BC
:104AD000E0BCBA46B146A846F0BDA0239B009A426E
:104AE0006CD1E31C03218B439BB2FA1C94B28C4320
:104AF0001B199BB21800103080B28A43934260D3D6
:104B0000824261D8FFF7B2FB81460028DED029003F
:104B10001031494403310324A14300230193434648
:104B200000933B003A00FFF7A7FE4B465B68234229
:104B3000CCD027480CF02AFB00250023994626E01C
:104B4000FFF7B8FE4B46002B02D04846FFF766FF42
:104B5000A946BBE7B6B2210010316918033103241E
:104B6000A143002301934346009333003A002800F9
:104B7000FFF782FE6B6823421BD14B46002B1BD0F4
:104B800053461D60BF1BBFB20024002F9ED0AA4613
:104B90000820FFF757FC051ED2D0E31C03229343E5
:104BA0009AB20C4B9B1A9BB21E1CBB42D2D93E1C24
:104BB000D0E709480CF0EAFAA946E3E707480CF009
:104BC000E5FA0023994681E7002399467EE7C0462F
:104BD00080870110EC0500001C870110AC870110D4
:104BE00070B5041E12D00089884220D90D00638957
:104BF000AB420ED2ED1AADB223890A1A9B1823815B
:104C00002468002CF3D113480CF0C0FA12480CF0C1
:104C1000BDFA227B120701D1AB4209D16581258102
:104C20002068002801D0FFF7F9FE0023236070BD43
:104C30006368191B691889B22000FFF77DFA002804
:104C400004D08442EAD005480CF0A0FA04480CF0E5
:104C50009DFAC046E0870110C88701101488011032
:104C6000F88701100300002002E0013080B21B68C9
:104C7000002BFAD17047000010B5041E09D0FCF7D4
:104C80002FF8A37B0133A373FCF72CF8A37B002B35
:104C900000D010BD01480CF079FAC04630880110F0
:104CA00010B5002801D0002908D10C480EF04EFEA6
:104CB0000FE003890C891B19038110000268002A88
:104CC000F7D103894289934204D10A899B18038151
:104CD000016010BD02480CF059FAC046448801102A
:104CE0007C88011010B50C00FFF7DAFF2000FFF7F9
:104CF000C3FF10BDF8B5CE46474680B506000D1E71
:104D0000914698460AD00A894A4507D300280BD015
:104D100002894B449A4207DB002726E03D480EF00B
:104D200015FE1020404270E03B480EF00FFE1020B0
:104D300040426AE039480CF029FA39480CF026FA6A
:104D40004B46002B36D10027424539D0002D03D0E9
:104D50006A892B899A4245D0002E03D07289338903
:104D60009A4248D04B46002B4ED0738942469B1A3C
:104D70006A89D21B934200D313004C46994500D94F
:104D80001C00706840446B68D91922000EF086FC44
:104D9000A0443F194B461C1BA3B299467289424559
:104DA000C8D36B89BB42C8D3CED82D68002DC7D0DD
:104DB0000027C9E71B480EF0C9FD1020404224E03F
:104DC0003668002E02D000239846BFE74B46002BE2
:104DD00002D100239846B9E713480EF0B7FD102022
:104DE000404212E02B68002BB6D010480EF0AEFD0A
:104DF0000620404209E03368002BB3D00B480EF088
:104E0000A5FD0620404200E00020C0BCB946B046E7
:104E1000F8BDC046AC880110E0880110108901106F
:104E200028890110448901105489011064890110F6
:104E300010B5002904D00A890023FFF75BFF10BDDD
:104E400002480EF083FD10204042F8E79C890110D3
:104E5000F8B5CE46474680B505008846914619000C
:104E6000002805D04346002B0BD00027002625E064
:104E700019480EF06BFD00273800C0BCB946B0469B
:104E8000F8BD16480EF062FD0027F5E76C89641A3C
:104E9000A4B2A14500D24C46434698196B689C4683
:104EA000614422000EF0FAFBE719BFB23619B6B220
:104EB0004B461C1BA3B2994600212D684B46002B84
:104EC000DAD0002DD8D00029E0D06B898B42DDD814
:104ED000C91A89B2F1E7C046B8890110D889011012
:104EE00010B5FFF7D9FC10BDF8B5CE46474680B5E2
:104EF0000500884616009146002806D000290AD0F1
:104F0000038993420DD300271DE018480EF01EFDC3
:104F10001020404223E016480EF018FD10204042B9
:104F20001DE014480EF012FD0120404217E0124827
:104F30000CF02CF94346D919220068680EF0AEFB3C
:104F4000361B3F192D68002E06D0002DEFD06C893E
:104F5000B442EFD33400EDE74F4504D10020C0BC8C
:104F6000B946B046F8BD05480CF010F9FC890110AF
:104F7000148A0110308A0110508A0110688A0110C9
:104F8000F0B583B00F00140019006B469A1DFFF7AF
:104F9000A7FF061E24D002896B46D88803199A42BF
:104FA00021DB7389984212D21A1A944212DD95B20B
:104FB00073689C4660442A0039000EF06FFB621B48
:104FC00092B27919002A07D1002003B0F0BD07483A
:104FD0000CF0DCF82500EBE73068FFF785FFF4E71D
:104FE00001204042F1E701204042EEE7808A0110B3
:104FF00070B50B00150011891A00FFF74DFD041E56
:1050000004D02900FFF714FF002801D1200070BD53
:1050100001480CF0BBF8C046988A011010B582B068
:1050200014006B469A1DFFF75BFF002807D04289EA
:105030006B4606331B889A4201D94268D45402B0A9
:1050400010BD000010B5027A002A07D0134B5C682F
:105050003C23E35C0133DBB29A4213D1002906D032
:10506000002811D00368002B10D000200BE000288E
:105070000ED00368002B0DD0084A526993420BD022
:10508000080000E0002010BD0120FCE70120FAE745
:105090000120F8E70120F6E70120F4E75C33002067
:1050A000F0B5D6464F4680B583B00500244B19684D
:1050B000586907F054FB07006B685E7A214B1C6847
:1050C00000239946019313E063699A46002B0DD0A3
:1050D0006B6899461C4B2A002100A069D047002824
:1050E0001AD16B684B4528D1022399460194E46894
:1050F000002C1CD0237C9E42F8D139002000FFF701
:10510000A1FF0028F2D0637CDB07DDD50C4B1B69C7
:1051100062689A42EAD1D7E7019B002B05D0E2688A
:10512000DA60084B1A68E2601C6001239946484621
:1051300003B0C0BCBA46B146F0BD04480CF026F836
:105140005C3300206CDD00206C330020AC8A011041
:1051500010B5002814D00368002B11D000290FD0FF
:105160000B68002B0CD0074B1B6800E0DB68002BA2
:1051700006D01A680468A242F8D10A681A60F5E7F6
:1051800010BDC0466CDD00207047000010B5002443
:1051900009E0154B154A1A800DE00134A4B28023B2
:1051A000DB019C421DD2104A138801339BB213804D
:1051B0000F4A9342EDD0002003280FD883000D4AF8
:1051C0009B581B68002B06D0D98A074A1288914247
:1051D000E3D0DB68F6E70130C0B2EDE7024B188898
:1051E00010BD0020FCE7C046C80E002000C0FFFF35
:1051F000FFFF00001491011010B5002903D10648EB
:105200000BF0C4FFC068002805D0C36F8B42F9D1F2
:105210000023C367F6E710BDF88A011070B5051EBC
:1052200004D0037D012B04D101240DE008480BF0CC
:10523000ADFF08480BF0AAFFA200074BD35818682F
:105240002900FFF7D9FF0134032CF5D970BDC04602
:10525000208B01102C8B01101491011010B501004E
:10526000037D012B03D00320FFF7FEF810BD01489A
:105270000BF08CFF448B011070B5041E09D0037D28
:10528000042B19D0072B1ED0032B05D00025280096
:1052900070BD12480BF07AFF03F02CFB051E01D104
:1052A00005232375002D15D06B1CF0D1638B0822CC
:1052B000134363830025EAE703F01CFB051EF1D1CD
:1052C00005232375EEE703F015FB051EEAD109233C
:1052D0002375E7E7200003F085FCD8E7208B011059
:1052E00010B5084B186800E02000002809D0C468F9
:1052F000438B1A07F8D5082293434383FFF7BCFF7B
:10530000F2E710BDACDF002010B5FCF7BFF8800459
:10531000800C034B9C466044024B188010BDC04675
:1053200000C0FFFFC80E002010B50100037D012B57
:1053300003D00220FFF798F810BD01480BF026FFBC
:10534000608B0110F8B5002816D0456A068DA919A2
:10535000C26A448E231C0E4FBC4200D93B1C9BB238
:10536000D318CB1A0BD5521B0CD480235B029A4264
:105370000BD242850020F8BD06480BF007FF46859A
:10538000881AF8E700234385F4E703480BF0FEFE94
:10539000D0160000748B0110988B011010B5041EFC
:1053A00013D0037D012B14D0038D591889B20F4AF5
:1053B000914201D88B420FD90C4B23852000FFF777
:1053C000C1FF0B4B984209D810BD0A480EF0BEFA37
:1053D000FAE709480BF0DAFE0185EFE7638B02225A
:1053E00013436383200003F0FDFBEDE7A02D0000D5
:1053F000670B0000B48B0110CC8B011010B5041E9C
:1054000008D04068002801D0FFF708FB21000420E5
:10541000FFF72AF810BD10B503E00468FFF7EEFFB0
:1054200020000028F9D110BD70B5051E0DD0042054
:10543000FFF708F8041E06D0142229000EF02EF9FA
:105440006068FFF719FC200070BD01480BF09EFE5C
:10545000F48B0110002800D00161704710B50028BE
:1054600004D0037D012B02D08423C15010BD01481C
:105470000BF08CFE108C011010B5002804D0037DB9
:10548000012B02D08023C15010BD01480BF07EFEDD
:10549000388C011010B5002804D0037D012B02D0F8
:1054A0009023C15010BD01480BF070FE608C0110BC
:1054B00010B5002806D0037D012B07D08C23C150E6
:1054C000427710BD03480EF041FAFAE702480BF0AC
:1054D0005DFEC046888C0110A08C011010B500281C
:1054E00007D0054B054A10681A6894466044186056
:1054F00010BD03480BF04AFEC40E0020BCDF0020A4
:10550000C08C011010B5002A0ED000290BD00B8ED4
:10551000002B08D0282B0AD9283B9BB21A1C8342A7
:1055200000D9021C90B210BD02480BF02FFE0023E0
:10553000F4E7C046DC8C0110F8B504001E0000281A
:1055400055D0002959D0037D002B5CD10B684360F6
:105550000283007A00285CD0FFF77CF90500002D5B
:1055600000D171E0002C02D02368002B04D12B1D48
:1055700000D16CE06B682360E78A002F04D1FFF74D
:1055800005FEE082002865D02000FFF7A7FF02009B
:10559000002161622065013A6264A265E2652F4BD9
:1055A00063852385E1626022A352862080006086A5
:1055B000221D2900FFF7A6FF608648230122E25240
:1055C0004033E6500221200003F006F9051E39D1D0
:1055D00002232375002F29D0214B1B68A3421DD025
:1055E000002B21D0DA68A2421CD01300F8E71D4836
:1055F0000EF0ACF910256D4224E01B480EF0A6F920
:1056000010256D421EE019480EF0A0F90A256D42E2
:1056100018E0201D06F01CFE0500A0E7DA68104B1C
:105620001A6001E0E268DA600023E360104B1A6858
:10563000E2601C6003F0A2FD0E4B01221A702000F4
:1056400003F0D0FA2800F8BD04256D42FAE70425DE
:105650006D42F7E702256D42F4E7C046A02D000039
:10566000B0DF0020048D0110208D01103C8D011051
:10567000ACDF00201AE0002010B50400406F0028C5
:1056800003D0FFF7C8FE0023636710BD10B5041EEA
:1056900022D0037D002B1ED00A2B1CD0012B1AD048
:1056A000806F002803D0FFF7B9F90023A367636F69
:1056B000002B02D02000FFF7DFFF01235B4223868F
:1056C000E06EFFF7A8FE206FFFF7A5FE0023E3665C
:1056D00023676822A35210BD01480EF037F9FAE79C
:1056E0006C8D011010B50C1E0BD000280CD0036877
:1056F0008B420CD0002B0FD0DA68A2420AD01300E4
:10570000F8E71C480BF042FD1B480BF03FFDDB683F
:10571000036001E0E268DA600023E3602000FFF745
:10572000B5FF237D0A2B04D0012B02D0638BDA074F
:105730000FD4237D012B08D0E36E002B10D1236FF3
:10574000002B10D1636F002B10D100232375E3824F
:1057500010BD022213436383200003F043FAE8E7FD
:1057600006480BF013FD06480BF010FD05480BF042
:105770000DFDC046888D0110A48D0110C48D01104F
:10578000DC8D0110F88D0110F0B5D6464F46464627
:10579000C0B584B004000D0000281CD0037D012B8F
:1057A0001DD00A2B1ED0026D9046426A914690226F
:1057B00086580769002B47D1C38A9A46002B4DD0E3
:1057C0002E4B1B68834215D0002B19D0DA68A242F9
:1057D00014D01300F8E72A480EF0B8F82EE0294854
:1057E0000BF0D4FC01002848FFF77CFF2000FFF7F6
:1057F0009BFD23E0DA68214B1A6001E0E268DA6081
:105800000023E3609A460025206F002801D0FFF7AF
:1058100002FEE06E002801D0FFF7FDFD606F00285A
:1058200001D0FFF7F8FD002D1AD12000FFF77CFD15
:10583000002E03D00D2149423800B04704B0E0BC2F
:10584000BA46B146A846F0BDC38A9A4601000F4841
:10585000FFF748FF0E4B01221A70D5E70025D3E76A
:10586000231D228B029252460192009323004A4646
:105870004146200003F04EF9D7E7C046B0DF0020D4
:10588000108E01102C8E0110C0DF0020ACDF002034
:105890001AE0002010B50121FFF776FF10BD0000CF
:1058A00010B50B4B1B680021002000E0DB68002BCB
:1058B00008D0084A12681C6A121B8A42F6D31100EB
:1058C0001800F3E7002801D0FFF7E4FF10BDC04641
:1058D000C0DF0020BCDF002070B543B2002B02DB2C
:1058E000002801D11FE07F200138C2B20E4B1B6897
:1058F0000024002006E00D4A14681A6AA41A0A005F
:105900001800DB68002B0AD0597D9142F3D3F8D1FF
:10591000064D2D681E6AAD1BA542F2D3EBE70028A9
:1059200001D0FFF7B7FF70BDACDF0020BCDF002067
:1059300070B504000800002C06D108480BF026FCC6
:10594000C568FFF7A7FF2800002805D00368226874
:105950009342F5D0C068F7E770BDC046608E011075
:1059600070B504000D00002802D00368002B00D1A0
:1059700070BD0D4B1968FFF7DBFF0C4B1968200059
:10598000FFF7D6FF002DF3D02B68002BF0D0084B8B
:105990001B6800E0DB68002BEAD01A6821688A42A5
:1059A000F8D12A681A60F5E7ACDF0020B0DF0020EC
:1059B000B8DF002070B501000300083BDBB2012B0B
:1059C00004D80E4B1B680024002003E00C480BF0A9
:1059D000DDFBDB68002B0BD01A7D8A42F9D1094A26
:1059E00012681D6A521BA242F3D314001800F0E79C
:1059F000002802D00021FFF7C7FE70BDACDF0020F9
:105A0000948E0110BCDF002070B505000220FEF767
:105A100019FD041E30D0002C2CD0A422002120001F
:105A20000DF036FE6575254B6422A35263852385F0
:105A30009B32E2721A32FF326286062240216252A3
:105A4000E287073A228649323F39A1521C4A12683E
:105A500022621C4A1278A2774A22A35284231A4A4D
:105A6000E2501033194AE2500433194AE250043329
:105A70000922E250200070BDFFF732FCFFF710FF53
:105A80000220FEF7DFFC041EC5D10920FFF792FFBC
:105A90000220FEF7D7FC041EBDD10820FFF78AFFC5
:105AA0000220FEF7CFFC041EB5D12800FFF714FF3B
:105AB0000220FEF7C7FC0400ADE7C046A02D0000A1
:105AC000BCDF00201CE00020495C001000DD6D0000
:105AD000F824010010B54020FFF796FF10BD00002C
